{
  "_format": "hh-sol-artifact-1",
  "contractName": "CassetteUnlockFactory",
  "sourceName": "contracts/CassetteUnlockFactoy.sol",
  "abi": [
    {
      "inputs": [
        {
          "internalType": "address",
          "name": "_unlockAddress",
          "type": "address"
        }
      ],
      "stateMutability": "nonpayable",
      "type": "constructor"
    },
    {
      "anonymous": false,
      "inputs": [
        {
          "indexed": true,
          "internalType": "address",
          "name": "lock",
          "type": "address"
        },
        {
          "indexed": true,
          "internalType": "address",
          "name": "deployer",
          "type": "address"
        }
      ],
      "name": "LockDeployed",
      "type": "event"
    },
    {
      "inputs": [
        {
          "internalType": "address",
          "name": "user",
          "type": "address"
        },
        {
          "internalType": "bytes",
          "name": "data",
          "type": "bytes"
        },
        {
          "internalType": "string",
          "name": "_name",
          "type": "string"
        },
        {
          "internalType": "string",
          "name": "_symbol",
          "type": "string"
        },
        {
          "internalType": "string",
          "name": "_baseTokenURI",
          "type": "string"
        }
      ],
      "name": "deployLock",
      "outputs": [
        {
          "internalType": "address",
          "name": "",
          "type": "address"
        }
      ],
      "stateMutability": "nonpayable",
      "type": "function"
    }
  ],
  "bytecode": "0x608060405234801561001057600080fd5b5060405161059a38038061059a83398101604081905261002f91610054565b600080546001600160a01b0319166001600160a01b0392909216919091179055610084565b60006020828403121561006657600080fd5b81516001600160a01b038116811461007d57600080fd5b9392505050565b610507806100936000396000f3fe608060405234801561001057600080fd5b506004361061002b5760003560e01c80637f01511c14610030575b600080fd5b61004361003e3660046102f5565b61005f565b6040516001600160a01b03909116815260200160405180910390f35b6000805460405163243d453b60e11b81526001600160a01b03909116908290829063487a8a7690610099908b908b90600c906004016103e7565b6020604051808303816000875af11580156100b8573d6000803e3d6000fd5b505050506040513d601f19601f820116820180604052508101906100dc9190610424565b60405163d250348560e01b81526001600160a01b038b811660048301529192509082169063d250348590602401600060405180830381600087803b15801561012357600080fd5b505af1158015610137573d6000803e3d6000fd5b50506040516313af403560e01b81526001600160a01b038c81166004830152841692506313af40359150602401600060405180830381600087803b15801561017e57600080fd5b505af1158015610192573d6000803e3d6000fd5b505060405163d1b8759b60e01b81526001600160a01b038416925063d1b8759b91506101c69089908990899060040161048e565b600060405180830381600087803b1580156101e057600080fd5b505af11580156101f4573d6000803e3d6000fd5b50506040513392506001600160a01b03841691507f74e23d591e8e4ae9572c85c0c6a14dd02756d8be22e66b005bfae97e736e98a290600090a398975050505050505050565b6001600160a01b038116811461024f57600080fd5b50565b634e487b7160e01b600052604160045260246000fd5b600082601f83011261027957600080fd5b813567ffffffffffffffff8082111561029457610294610252565b604051601f8301601f19908116603f011681019082821181831017156102bc576102bc610252565b816040528381528660208588010111156102d557600080fd5b836020870160208301376000602085830101528094505050505092915050565b60008060008060008060a0878903121561030e57600080fd5b86356103198161023a565b9550602087013567ffffffffffffffff8082111561033657600080fd5b818901915089601f83011261034a57600080fd5b81358181111561035957600080fd5b8a602082850101111561036b57600080fd5b60208301975080965050604089013591508082111561038957600080fd5b6103958a838b01610268565b945060608901359150808211156103ab57600080fd5b6103b78a838b01610268565b935060808901359150808211156103cd57600080fd5b506103da89828a01610268565b9150509295509295509295565b604081528260408201528284606083013760006060848301015260006060601f19601f860116830101905061ffff83166020830152949350505050565b60006020828403121561043657600080fd5b81516104418161023a565b9392505050565b6000815180845260005b8181101561046e57602081850181015186830182015201610452565b506000602082860101526020601f19601f83011685010191505092915050565b6060815260006104a16060830186610448565b82810360208401526104b38186610448565b905082810360408401526104c78185610448565b969550505050505056fea2646970667358221220090143a761fb2ea2162397869fb1fd32c23ecc5f38d6b2da5f7046520583934864736f6c63430008110033",
  "linkReferences": {},
  "deployedLinkReferences": {}
}