{
  "_format": "hh-sol-artifact-1",
  "contractName": "CassetteUnlockFactory",
  "sourceName": "contracts/CassetteUnlockFactoy.sol",
  "abi": [
    {
      "inputs": [
        {
          "internalType": "address",
          "name": "_unlockAddress",
          "type": "address"
        }
      ],
      "stateMutability": "nonpayable",
      "type": "constructor"
    },
    {
      "anonymous": false,
      "inputs": [
        {
          "indexed": true,
          "internalType": "address",
          "name": "lock",
          "type": "address"
        },
        {
          "indexed": true,
          "internalType": "address",
          "name": "deployer",
          "type": "address"
        },
        {
          "indexed": true,
          "internalType": "address",
          "name": "user",
          "type": "address"
        }
      ],
      "name": "LockDeployed",
      "type": "event"
    },
    {
      "inputs": [
        {
          "internalType": "address",
          "name": "user",
          "type": "address"
        },
        {
          "internalType": "bytes",
          "name": "data",
          "type": "bytes"
        },
        {
          "internalType": "string",
          "name": "_name",
          "type": "string"
        },
        {
          "internalType": "string",
          "name": "_symbol",
          "type": "string"
        },
        {
          "internalType": "string",
          "name": "_baseTokenURI",
          "type": "string"
        }
      ],
      "name": "deployLock",
      "outputs": [
        {
          "internalType": "address",
          "name": "",
          "type": "address"
        }
      ],
      "stateMutability": "nonpayable",
      "type": "function"
    }
  ],
  "bytecode": "0x608060405234801561001057600080fd5b506040516105f13803806105f183398101604081905261002f91610054565b600080546001600160a01b0319166001600160a01b0392909216919091179055610084565b60006020828403121561006657600080fd5b81516001600160a01b038116811461007d57600080fd5b9392505050565b61055e806100936000396000f3fe608060405234801561001057600080fd5b506004361061002b5760003560e01c80637f01511c14610030575b600080fd5b61004361003e36600461034c565b61005f565b6040516001600160a01b03909116815260200160405180910390f35b6000805460405163243d453b60e11b81526001600160a01b03909116908290829063487a8a7690610099908b908b90600c9060040161043e565b6020604051808303816000875af11580156100b8573d6000803e3d6000fd5b505050506040513d601f19601f820116820180604052508101906100dc919061047b565b6040516313af403560e01b81526001600160a01b038b81166004830152919250908216906313af403590602401600060405180830381600087803b15801561012357600080fd5b505af1158015610137573d6000803e3d6000fd5b505060405163d1b8759b60e01b81526001600160a01b038416925063d1b8759b915061016b908990899089906004016104e5565b600060405180830381600087803b15801561018557600080fd5b505af1158015610199573d6000803e3d6000fd5b505060405163d250348560e01b81526001600160a01b038c811660048301528416925063d25034859150602401600060405180830381600087803b1580156101e057600080fd5b505af11580156101f4573d6000803e3d6000fd5b50505050806001600160a01b031663f0ba60406040518163ffffffff1660e01b8152600401600060405180830381600087803b15801561023357600080fd5b505af1158015610247573d6000803e3d6000fd5b50506040516001600160a01b03808d1693503392508416907fba0886e5a1336caa1883825196d0b2351266fb5a189d46e6d0bf28c231cd6c8290600090a498975050505050505050565b6001600160a01b03811681146102a657600080fd5b50565b634e487b7160e01b600052604160045260246000fd5b600082601f8301126102d057600080fd5b813567ffffffffffffffff808211156102eb576102eb6102a9565b604051601f8301601f19908116603f01168101908282118183101715610313576103136102a9565b8160405283815286602085880101111561032c57600080fd5b836020870160208301376000602085830101528094505050505092915050565b60008060008060008060a0878903121561036557600080fd5b863561037081610291565b9550602087013567ffffffffffffffff8082111561038d57600080fd5b818901915089601f8301126103a157600080fd5b8135818111156103b057600080fd5b8a60208285010111156103c257600080fd5b6020830197508096505060408901359150808211156103e057600080fd5b6103ec8a838b016102bf565b9450606089013591508082111561040257600080fd5b61040e8a838b016102bf565b9350608089013591508082111561042457600080fd5b5061043189828a016102bf565b9150509295509295509295565b604081528260408201528284606083013760006060848301015260006060601f19601f860116830101905061ffff83166020830152949350505050565b60006020828403121561048d57600080fd5b815161049881610291565b9392505050565b6000815180845260005b818110156104c5576020818501810151868301820152016104a9565b506000602082860101526020601f19601f83011685010191505092915050565b6060815260006104f8606083018661049f565b828103602084015261050a818661049f565b9050828103604084015261051e818561049f565b969550505050505056fea2646970667358221220b3e73e0542fec90847497f485d5084c6cb80a6b172216d917629c348ad42010864736f6c63430008110033",
  "linkReferences": {},
  "deployedLinkReferences": {}
}